{
  "contractName": "EthMarketPlace",
  "abi": [
    {
      "inputs": [
        {
          "internalType": "uint256",
          "name": "_ethPrice",
          "type": "uint256"
        },
        {
          "internalType": "uint256",
          "name": "_btcPrice",
          "type": "uint256"
        },
        {
          "internalType": "uint256",
          "name": "_bnbPrice",
          "type": "uint256"
        }
      ],
      "stateMutability": "nonpayable",
      "type": "constructor"
    },
    {
      "anonymous": false,
      "inputs": [
        {
          "indexed": false,
          "internalType": "address",
          "name": "buyer",
          "type": "address"
        },
        {
          "indexed": false,
          "internalType": "enum EthMarketPlace.Currency",
          "name": "currency",
          "type": "uint8"
        },
        {
          "indexed": false,
          "internalType": "uint256",
          "name": "amount",
          "type": "uint256"
        }
      ],
      "name": "Purchased",
      "type": "event"
    },
    {
      "anonymous": false,
      "inputs": [
        {
          "indexed": false,
          "internalType": "address",
          "name": "seller",
          "type": "address"
        },
        {
          "indexed": false,
          "internalType": "enum EthMarketPlace.Currency",
          "name": "currency",
          "type": "uint8"
        },
        {
          "indexed": false,
          "internalType": "uint256",
          "name": "amount",
          "type": "uint256"
        }
      ],
      "name": "Sold",
      "type": "event"
    },
    {
      "inputs": [],
      "name": "bnbPrice",
      "outputs": [
        {
          "internalType": "uint256",
          "name": "",
          "type": "uint256"
        }
      ],
      "stateMutability": "view",
      "type": "function"
    },
    {
      "inputs": [],
      "name": "btcPrice",
      "outputs": [
        {
          "internalType": "uint256",
          "name": "",
          "type": "uint256"
        }
      ],
      "stateMutability": "view",
      "type": "function"
    },
    {
      "inputs": [],
      "name": "ethPrice",
      "outputs": [
        {
          "internalType": "uint256",
          "name": "",
          "type": "uint256"
        }
      ],
      "stateMutability": "view",
      "type": "function"
    },
    {
      "inputs": [],
      "name": "owner",
      "outputs": [
        {
          "internalType": "address",
          "name": "",
          "type": "address"
        }
      ],
      "stateMutability": "view",
      "type": "function"
    },
    {
      "inputs": [
        {
          "internalType": "uint256",
          "name": "_ethPrice",
          "type": "uint256"
        },
        {
          "internalType": "uint256",
          "name": "_btcPrice",
          "type": "uint256"
        },
        {
          "internalType": "uint256",
          "name": "_bnbPrice",
          "type": "uint256"
        }
      ],
      "name": "setPrices",
      "outputs": [],
      "stateMutability": "nonpayable",
      "type": "function"
    },
    {
      "inputs": [
        {
          "internalType": "enum EthMarketPlace.Currency",
          "name": "_currency",
          "type": "uint8"
        }
      ],
      "name": "buy",
      "outputs": [],
      "stateMutability": "payable",
      "type": "function"
    },
    {
      "inputs": [
        {
          "internalType": "enum EthMarketPlace.Currency",
          "name": "_currency",
          "type": "uint8"
        },
        {
          "internalType": "uint256",
          "name": "_amount",
          "type": "uint256"
        }
      ],
      "name": "sell",
      "outputs": [],
      "stateMutability": "nonpayable",
      "type": "function"
    },
    {
      "inputs": [],
      "name": "withdraw",
      "outputs": [],
      "stateMutability": "nonpayable",
      "type": "function"
    }
  ],
  "bytecode": "0x608060405234801561000f575f80fd5b50604051610be2380380610be2833981810160405281019061003191906100c4565b335f806101000a81548173ffffffffffffffffffffffffffffffffffffffff021916908373ffffffffffffffffffffffffffffffffffffffff160217905550826001819055508160028190555080600381905550505050610114565b5f80fd5b5f819050919050565b6100a381610091565b81146100ad575f80fd5b50565b5f815190506100be8161009a565b92915050565b5f805f606084860312156100db576100da61008d565b5b5f6100e8868287016100b0565b93505060206100f9868287016100b0565b925050604061010a868287016100b0565b9150509250925092565b610ac1806101215f395ff3fe60806040526004361061007a575f3560e01c8063a88fe42d1161004d578063a88fe42d14610104578063a8ad52d11461012c578063d9515e0b14610156578063ff186b2e1461017e5761007a565b806314107f3c1461007e5780633ccfd60b1461009a578063576dde12146100b05780638da5cb5b146100da575b5f80fd5b61009860048036038101906100939190610664565b6101a8565b005b3480156100a5575f80fd5b506100ae6102e9565b005b3480156100bb575f80fd5b506100c46103db565b6040516100d191906106a7565b60405180910390f35b3480156100e5575f80fd5b506100ee6103e1565b6040516100fb91906106ff565b60405180910390f35b34801561010f575f80fd5b5061012a60048036038101906101259190610742565b610404565b005b348015610137575f80fd5b506101406104ab565b60405161014d91906106a7565b60405180910390f35b348015610161575f80fd5b5061017c60048036038101906101779190610792565b6104b1565b005b348015610189575f80fd5b50610192610637565b60405161019f91906106a7565b60405180910390f35b5f34116101ea576040517f08c379a00000000000000000000000000000000000000000000000000000000081526004016101e19061082a565b60405180910390fd5b5f8060028111156101fe576101fd610848565b5b82600281111561021157610210610848565b5b0361022b576001543461022491906108cf565b90506102aa565b6001600281111561023f5761023e610848565b5b82600281111561025257610251610848565b5b0361026c576002543461026591906108cf565b90506102a9565b60028081111561027f5761027e610848565b5b82600281111561029257610291610848565b5b036102a857600354346102a591906108cf565b90505b5b5b7fa7b873ef4677cde1233bda7f683077be38a2e18a4fa91dfe86af3908490bddfb3383836040516102dd93929190610945565b60405180910390a15050565b5f8054906101000a900473ffffffffffffffffffffffffffffffffffffffff1673ffffffffffffffffffffffffffffffffffffffff163373ffffffffffffffffffffffffffffffffffffffff1614610376576040517f08c379a000000000000000000000000000000000000000000000000000000000815260040161036d906109c4565b60405180910390fd5b5f8054906101000a900473ffffffffffffffffffffffffffffffffffffffff1673ffffffffffffffffffffffffffffffffffffffff166108fc4790811502906040515f60405180830381858888f193505050501580156103d8573d5f803e3d5ffd5b50565b60035481565b5f8054906101000a900473ffffffffffffffffffffffffffffffffffffffff1681565b5f8054906101000a900473ffffffffffffffffffffffffffffffffffffffff1673ffffffffffffffffffffffffffffffffffffffff163373ffffffffffffffffffffffffffffffffffffffff1614610491576040517f08c379a0000000000000000000000000000000000000000000000000000000008152600401610488906109c4565b60405180910390fd5b826001819055508160028190555080600381905550505050565b60025481565b5f81116104f3576040517f08c379a00000000000000000000000000000000000000000000000000000000081526004016104ea90610a2c565b60405180910390fd5b5f80600281111561050757610506610848565b5b83600281111561051a57610519610848565b5b03610534576001548261052d9190610a4a565b90506105b3565b6001600281111561054857610547610848565b5b83600281111561055b5761055a610848565b5b03610575576002548261056e9190610a4a565b90506105b2565b60028081111561058857610587610848565b5b83600281111561059b5761059a610848565b5b036105b157600354826105ae9190610a4a565b90505b5b5b3373ffffffffffffffffffffffffffffffffffffffff166108fc8290811502906040515f60405180830381858888f193505050501580156105f6573d5f803e3d5ffd5b507f69e33549b0bf2df6fc489568a4dc074af7838f13ea0b0653760dffb9c96fafd733848460405161062a93929190610945565b60405180910390a1505050565b60015481565b5f80fd5b6003811061064d575f80fd5b50565b5f8135905061065e81610641565b92915050565b5f602082840312156106795761067861063d565b5b5f61068684828501610650565b91505092915050565b5f819050919050565b6106a18161068f565b82525050565b5f6020820190506106ba5f830184610698565b92915050565b5f73ffffffffffffffffffffffffffffffffffffffff82169050919050565b5f6106e9826106c0565b9050919050565b6106f9816106df565b82525050565b5f6020820190506107125f8301846106f0565b92915050565b6107218161068f565b811461072b575f80fd5b50565b5f8135905061073c81610718565b92915050565b5f805f606084860312156107595761075861063d565b5b5f6107668682870161072e565b93505060206107778682870161072e565b92505060406107888682870161072e565b9150509250925092565b5f80604083850312156107a8576107a761063d565b5b5f6107b585828601610650565b92505060206107c68582860161072e565b9150509250929050565b5f82825260208201905092915050565b7f53656e6420736f6d652045544820746f206275790000000000000000000000005f82015250565b5f6108146014836107d0565b915061081f826107e0565b602082019050919050565b5f6020820190508181035f83015261084181610808565b9050919050565b7f4e487b71000000000000000000000000000000000000000000000000000000005f52602160045260245ffd5b7f4e487b71000000000000000000000000000000000000000000000000000000005f52601260045260245ffd5b7f4e487b71000000000000000000000000000000000000000000000000000000005f52601160045260245ffd5b5f6108d98261068f565b91506108e48361068f565b9250826108f4576108f3610875565b5b828204905092915050565b600381106109105761090f610848565b5b50565b5f819050610920826108ff565b919050565b5f61092f82610913565b9050919050565b61093f81610925565b82525050565b5f6060820190506109585f8301866106f0565b6109656020830185610936565b6109726040830184610698565b949350505050565b7f4e6f742074686520636f6e7472616374206f776e6572000000000000000000005f82015250565b5f6109ae6016836107d0565b91506109b98261097a565b602082019050919050565b5f6020820190508181035f8301526109db816109a2565b9050919050565b7f5370656369667920616e20616d6f756e7420746f2073656c6c000000000000005f82015250565b5f610a166019836107d0565b9150610a21826109e2565b602082019050919050565b5f6020820190508181035f830152610a4381610a0a565b9050919050565b5f610a548261068f565b9150610a5f8361068f565b9250828202610a6d8161068f565b91508282048414831517610a8457610a836108a2565b5b509291505056fea26469706673582212206a2b5fce8bae9604c9a265b68ef4784f8ee841565dc3eefd47e9d667b03ee72064736f6c63430008150033",
  "immutableReferences": {},
  "source": "\n// SPDX-License-Identifier: MIT\npragma solidity ^0.8.0;\n\ncontract EthMarketPlace {\n    address public owner;\n    uint256 public ethPrice;\n    uint256 public btcPrice;\n    uint256 public bnbPrice;\n\n    enum Currency { ETH, BTC, BNB }\n\n    event Purchased(address buyer, Currency currency, uint256 amount);\n    event Sold(address seller, Currency currency, uint256 amount);\n\n    constructor(uint256 _ethPrice, uint256 _btcPrice, uint256 _bnbPrice) {\n        owner = msg.sender;\n        ethPrice = _ethPrice;\n        btcPrice = _btcPrice;\n        bnbPrice = _bnbPrice;\n    }\n\n    modifier onlyOwner() {\n        require(msg.sender == owner, \"Not the contract owner\");\n        _;\n    }\n\n    // Function to set the price of ETH, BTC, and BNB\n    function setPrices(uint256 _ethPrice, uint256 _btcPrice, uint256 _bnbPrice) public onlyOwner {\n        ethPrice = _ethPrice;\n        btcPrice = _btcPrice;\n        bnbPrice = _bnbPrice;\n    }\n\n    // Function to buy tokens (ETH, BTC, BNB)\n    function buy(Currency _currency) public payable {\n        require(msg.value > 0, \"Send some ETH to buy\");\n\n        uint256 amount;\n        if (_currency == Currency.ETH) {\n            amount = msg.value / ethPrice;\n        } else if (_currency == Currency.BTC) {\n            amount = msg.value / btcPrice;\n        } else if (_currency == Currency.BNB) {\n            amount = msg.value / bnbPrice;\n        }\n\n        emit Purchased(msg.sender, _currency, amount);\n    }\n\n    // Function to sell tokens (ETH, BTC, BNB)\n    function sell(Currency _currency, uint256 _amount) public {\n        require(_amount > 0, \"Specify an amount to sell\");\n\n        uint256 value;\n        if (_currency == Currency.ETH) {\n            value = _amount * ethPrice;\n        } else if (_currency == Currency.BTC) {\n            value = _amount * btcPrice;\n        } else if (_currency == Currency.BNB) {\n            value = _amount * bnbPrice;\n        }\n\n        payable(msg.sender).transfer(value);\n        emit Sold(msg.sender, _currency, _amount);\n    }\n\n    // Function to withdraw contract balance (only owner)\n    function withdraw() public onlyOwner {\n        payable(owner).transfer(address(this).balance);\n    }\n}\n\n",
  "sourcePath": "/Users/fe-giaan/WebstormProjects/SmartContractOnETH/contracts/EthMarketPlace.sol",
  "compiler": {
    "name": "solc",
    "version": "0.8.21+commit.d9974bed.Emscripten.clang"
  },
  "schemaVersion": "3.4.16",
  "updatedAt": "2024-08-12T06:14:32.508Z",
  "devdoc": {
    "kind": "dev",
    "methods": {},
    "version": 1
  },
  "userdoc": {
    "kind": "user",
    "methods": {},
    "version": 1
  }
}